{
  "transactions": [
    {
      "hash": "0x7df6bb3a14d417d9b1545a12b4d1c76fbee7f0f46fa88726ac59b156d4421aaf",
      "transactionType": "CREATE",
      "contractName": "GaslessRelayer",
      "contractAddress": "0xb578040b8cf5d16ef2c44aa3ee5e536c91e0391f",
      "function": null,
      "arguments": [
        "0x3441cF331Cb75c6BBCa7a34718224C7983eF4636",
        "0x4D149a54658d310C9487671d868A4ce0B6fdEd96"
      ],
      "transaction": {
        "from": "0x4d149a54658d310c9487671d868a4ce0b6fded96",
        "gas": "0x193674",
        "value": "0x0",
        "input": "0x61018080604052346102a957604081611a2b803803809161002082856102ad565b8339810103126102a95761003f6020610038836102e4565b92016102e4565b9060405161004e6040826102ad565b6018815260208101907f4b617472696e614445584761736c65737352656c6179657200000000000000008252604051916100896040846102ad565b600183526020830191603160f81b83523315610296575f8054336001600160a01b0319821681178355916001600160a01b03909116907f8be0079c531659141344cd1fd0a4f28419497f9722a3daafe3b4186f6b6457e09080a360017f9b779b17422d0df92223018b32b4d1fa46e071723d6817e2486d003becc55f0055610110816102f8565b6101205261011d84610493565b61014052519020918260e05251902080610100524660a0526040519060208201927f8b73c3c69bb8fe3d512ecc4cf759cc79239f7b179b0ffacaa9a75d522b39400f8452604083015260608201524660808201523060a082015260a0815261018660c0826102ad565b5190206080523060c0526001600160a01b0316908115610261576001600160a01b03169081156102295761016052600380546001600160a01b03191691909117905560405161145f90816105cc82396080518161120b015260a051816112c8015260c051816111d5015260e0518161125a01526101005181611280015261012051816102dc0152610140518161030601526101605181818160ea01526109200152f35b60405162461bcd60e51b815260206004820152601060248201526f496e76616c696420747265617375727960801b6044820152606490fd5b60405162461bcd60e51b815260206004820152600d60248201526c24b73b30b634b21036b4bc32b960991b6044820152606490fd5b631e4fbdf760e01b5f525f60045260245ffd5b5f80fd5b601f909101601f19168101906001600160401b038211908210176102d057604052565b634e487b7160e01b5f52604160045260245ffd5b51906001600160a01b03821682036102a957565b908151602081105f14610372575090601f815111610332576020815191015160208210610323571790565b5f198260200360031b1b161790565b604460209160405192839163305a27a960e01b83528160048401528051918291826024860152018484015e5f828201840152601f01601f19168101030190fd5b6001600160401b0381116102d057600154600181811c91168015610489575b602082101461047557601f8111610442575b50602092601f82116001146103e157928192935f926103d6575b50508160011b915f199060031b1c19161760015560ff90565b015190505f806103bd565b601f1982169360015f52805f20915f5b86811061042a5750836001959610610412575b505050811b0160015560ff90565b01515f1960f88460031b161c191690555f8080610404565b919260206001819286850151815501940192016103f1565b60015f52601f60205f20910160051c810190601f830160051c015b81811061046a57506103a3565b5f815560010161045d565b634e487b7160e01b5f52602260045260245ffd5b90607f1690610391565b908151602081105f146104be575090601f815111610332576020815191015160208210610323571790565b6001600160401b0381116102d057600254600181811c911680156105c1575b602082101461047557601f811161058e575b50602092601f821160011461052d57928192935f92610522575b50508160011b915f199060031b1c19161760025560ff90565b015190505f80610509565b601f1982169360025f52805f20915f5b868110610576575083600195961061055e575b505050811b0160025560ff90565b01515f1960f88460031b161c191690555f8080610550565b9192602060018192868501518155019401920161053d565b60025f52601f60205f20910160051c810190601f830160051c015b8181106105b657506104ef565b5f81556001016105a9565b90607f16906104dd56fe6080604052600436101561001a575b3615610018575f80fd5b005b5f5f3560e01c80630a87511b1461064d57806313c9ef2f146105d2578063222a335f146104e25780632d0335ab1461040a57806361d027b3146104b9578063715018a61461045f5780637dd37993146104435780637ecebe001461040a57806383fcea8d146103be57806384b0196e146102c25780638da5cb5b1461029b578063ab344c341461026c578063e1f1c4a71461024f578063f0f44260146101a2578063f2fde38b1461011c5763f6bed059146100d5575061000e565b346101195780600319360112610119576040517f00000000000000000000000000000000000000000000000000000000000000006001600160a01b03168152602090f35b80fd5b503461011957602036600319011261011957610136610e50565b61013e610fb3565b6001600160a01b0316801561018e5781546001600160a01b03198116821783556001600160a01b03167f8be0079c531659141344cd1fd0a4f28419497f9722a3daafe3b4186f6b6457e08380a380f35b631e4fbdf760e01b82526004829052602482fd5b5034610119576020366003190112610119576101bc610e50565b6101c4610fb3565b6001600160a01b0316801561021757600380546001600160a01b0319811683179091556001600160a01b03167f4ab5be82436d353e61ca18726e984e561f5c1cc7c6d38b29d2553c790434705a8380a380f35b60405162461bcd60e51b815260206004820152601060248201526f496e76616c696420747265617375727960801b6044820152606490fd5b503461011957806003193601126101195760206040516127108152f35b50346101195760203660031901126101195760ff60406020926004358152600584522054166040519015158152f35b5034610119578060031936011261011957546040516001600160a01b039091168152602090f35b5034610119578060031936011261011957610362906103007f0000000000000000000000000000000000000000000000000000000000000000610fd9565b9061032a7f0000000000000000000000000000000000000000000000000000000000000000611102565b9060206103706040519361033e8386610e66565b8385525f368137604051968796600f60f81b885260e08589015260e0880190610ed4565b908682036040880152610ed4565b904660608601523060808601528260a086015284820360c08601528080855193848152019401925b8281106103a757505050500390f35b835185528695509381019392810192600101610398565b503461011957602036600319011261011957600435906028820291808304602814901517156103f65760208261271060405191048152f35b634e487b7160e01b81526011600452602490fd5b5034610119576020366003190112610119576020906040906001600160a01b03610432610e50565b168152600483522054604051908152f35b5034610119578060031936011261011957602060405160288152f35b5034610119578060031936011261011957610478610fb3565b80546001600160a01b03198116825581906001600160a01b03167f8be0079c531659141344cd1fd0a4f28419497f9722a3daafe3b4186f6b6457e08280a380f35b50346101195780600319360112610119576003546040516001600160a01b039091168152602090f35b50346101195760403660031901126101195760043567ffffffffffffffff81116105ce57366023820112156105ce57806004013567ffffffffffffffff81116105ca576024820191602436918360051b0101116105ca57610541610ec5565b9061054a610fb3565b835b818110610557578480f35b806105656001928487610f8f565b358652600560205261058684604088209060ff801983541691151516179055565b7fcdddaa96f84b1f8d4119db049923c12cce76bc36fb5fa4f86b4aa89b83f42b6e846105b3838689610f8f565b60408051913582529115156020820152a10161054c565b8280fd5b5080fd5b5034610119576040366003190112610119577fcdddaa96f84b1f8d4119db049923c12cce76bc36fb5fa4f86b4aa89b83f42b6e600435610610610ec5565b90610619610fb3565b808452600560205261063a82604086209060ff801983541691151516179055565b604080519182529115156020820152a180f35b5034610cd457610220366003190112610cd457610668610e50565b604435906064356001600160a01b0381169160243591839003610cd4573660a31215610cd457610699366084610e88565b933660e31215610cd4576040918251956106b38488610e66565b863661014411610cd45760c4905b6101448210610e2c575050366101631215610cd4576106e236610144610e88565b96366101a31215610cd4578451936106fb606086610e66565b84366101e411610cd457610184905b6101e48210610e085750506101e4359667ffffffffffffffff8811610cd45736602389011215610cd45787600401359767ffffffffffffffff8911610cd4573660248a83010111610cd457610204359860027f9b779b17422d0df92223018b32b4d1fa46e071723d6817e2486d003becc55f005414610df95760027f9b779b17422d0df92223018b32b4d1fa46e071723d6817e2486d003becc55f0055894211610dcb576001600160a01b038716998a15610d9357835f52600560205260ff8a5f20541615610d58576108a2925f6020848f958f8f9687826042928d8f9c6108999d6024978c5260048b52858c2054928651958c8701977ff7db3efee6d49a1c4391513e4942895a1fa8925d0a3d2cd234d2d70796d24d5f89528701526060860152608085015260a084015260c083015260e082015260e0815261085061010082610e66565b51902061085b6111d2565b9089519161190160f01b835260028301526022820152209561088861087f84610f44565b98519889610e66565b8288520183870137840101526112ee565b90929192611328565b6001600160a01b0316958615610d205760288202821590838104602814821715610cd8576127109004978815610cec57805f526004602052895f20549060018201809211610cd8575f526004602052895f2055601e830290838204601e141715610cd8578761091861271061091d930485610ef8565b610ef8565b9a7f00000000000000000000000000000000000000000000000000000000000000006001600160a01b031694853b15610cd45789516350d73afb60e11b81529687959493929190610972906004880190610f05565b5f8b604488015b60028310610caa57505050506109939060c4860190610f05565b5f61010485015b60038210610c90575050505f80946101e49385938d610164860152306101848601526101a48501526101c48401525af18015610c8657610c71575b50859085610aea57508680808093875af16109ee610f60565b5015610ab057858080808460018060a01b03600354165af1610a0e610f60565b5015610a6c57907f6b3e81da1a4356f127e7406f677be12d7a8c5d543c650bb65653e062fad2dce6915b815195865260208601523394a460017f9b779b17422d0df92223018b32b4d1fa46e071723d6817e2486d003becc55f005580f35b815162461bcd60e51b815260206004820152601760248201527f45544820666565207472616e73666572206661696c65640000000000000000006044820152606490fd5b815162461bcd60e51b8152602060048201526013602482015272115512081d1c985b9cd9995c8819985a5b1959606a1b6044820152606490fd5b835163a9059cbb60e01b81526001600160a01b0391909116600482015260248101919091526020816044818a895af1908115610c0c578791610c52575b5015610c1657600354825163a9059cbb60e01b81526001600160a01b039091166004820152602481018290526020816044818a895af1908115610c0c578791610bdd575b5015610b9957907f6b3e81da1a4356f127e7406f677be12d7a8c5d543c650bb65653e062fad2dce691610a38565b815162461bcd60e51b815260206004820152601960248201527f546f6b656e20666565207472616e73666572206661696c6564000000000000006044820152606490fd5b610bff915060203d602011610c05575b610bf78183610e66565b810190610f2c565b5f610b6b565b503d610bed565b83513d89823e3d90fd5b815162461bcd60e51b8152602060048201526015602482015274151bdad95b881d1c985b9cd9995c8819985a5b1959605a1b6044820152606490fd5b610c6b915060203d602011610c0557610bf78183610e66565b5f610b27565b610c7e9197505f90610e66565b5f95856109d5565b84513d5f823e3d90fd5b82518152879550602092830192600192909201910161099a565b839495969798509081610cc36020936001959651610f05565b01930191018b899796959493610979565b5f80fd5b634e487b7160e01b5f52601160045260245ffd5b895162461bcd60e51b815260206004820152600d60248201526c119959481d1bdbc81cdb585b1b609a1b6044820152606490fd5b875162461bcd60e51b8152602060048201526011602482015270496e76616c6964207369676e617475726560781b6044820152606490fd5b895162461bcd60e51b8152602060048201526014602482015273141bdbdb081b9bdd081dda1a5d195b1a5cdd195960621b6044820152606490fd5b895162461bcd60e51b8152602060048201526011602482015270125b9d985b1a59081c9958da5c1a595b9d607a1b6044820152606490fd5b885162461bcd60e51b8152602060048201526007602482015266115e1c1a5c995960ca1b6044820152606490fd5b633ee5aeb560e01b5f5260045ffd5b813581526020918201910161070a565b634e487b7160e01b5f52604160045260245ffd5b36601f83011215610cd45760208691610e453685610e88565b8152019101906106c1565b600435906001600160a01b0382168203610cd457565b90601f8019910116810190811067ffffffffffffffff821117610e1857604052565b9190604080519390610e9a9085610e66565b839060408101928311610cd457905b828210610eb557505050565b8135815260209182019101610ea9565b602435908115158203610cd457565b805180835260209291819084018484015e5f828201840152601f01601f1916010190565b91908203918211610cd857565b905f905b60028210610f1657505050565b6020806001928551815201930191019091610f09565b90816020910312610cd457518015158103610cd45790565b67ffffffffffffffff8111610e1857601f01601f191660200190565b3d15610f8a573d90610f7182610f44565b91610f7f6040519384610e66565b82523d5f602084013e565b606090565b9190811015610f9f5760051b0190565b634e487b7160e01b5f52603260045260245ffd5b5f546001600160a01b03163303610fc657565b63118cdaa760e01b5f523360045260245ffd5b60ff811461101f5760ff811690601f82116110105760405191610ffd604084610e66565b6020808452838101919036833783525290565b632cd44ac360e21b5f5260045ffd5b506040515f6001548060011c91600182169182156110f8575b6020841083146110e45783855284929081156110c55750600114611066575b61106392500382610e66565b90565b5060015f90815290917fb10e2d527612073b26eecdfd717e6a320cf44b4afac2b0732d9fcbe2b7fa0cf65b8183106110a957505090602061106392820101611057565b6020919350806001915483858801015201910190918392611091565b6020925061106394915060ff191682840152151560051b820101611057565b634e487b7160e01b5f52602260045260245ffd5b92607f1692611038565b60ff81146111265760ff811690601f82116110105760405191610ffd604084610e66565b506040515f6002548060011c91600182169182156111c8575b6020841083146110e45783855284929081156110c557506001146111695761106392500382610e66565b5060025f90815290917f405787fa12a823e0f2b7631cc41b3ba8828b3321ca811111fa75cd3aa3bb5ace5b8183106111ac57505090602061106392820101611057565b6020919350806001915483858801015201910190918392611194565b92607f169261113f565b307f00000000000000000000000000000000000000000000000000000000000000006001600160a01b031614806112c5575b1561122d577f000000000000000000000000000000000000000000000000000000000000000090565b60405160208101907f8b73c3c69bb8fe3d512ecc4cf759cc79239f7b179b0ffacaa9a75d522b39400f82527f000000000000000000000000000000000000000000000000000000000000000060408201527f000000000000000000000000000000000000000000000000000000000000000060608201524660808201523060a082015260a081526112bf60c082610e66565b51902090565b507f00000000000000000000000000000000000000000000000000000000000000004614611204565b815191906041830361131e576113179250602082015190606060408401519301515f1a9061139c565b9192909190565b50505f9160029190565b6004811015611388578061133a575050565b600181036113515763f645eedf60e01b5f5260045ffd5b6002810361136c575063fce698f760e01b5f5260045260245ffd5b6003146113765750565b6335e2f38360e21b5f5260045260245ffd5b634e487b7160e01b5f52602160045260245ffd5b91907f7fffffffffffffffffffffffffffffff5d576e7357a4501ddfe92f46681b20a0841161141e579160209360809260ff5f9560405194855216868401526040830152606082015282805260015afa15611413575f516001600160a01b0381161561140957905f905f90565b505f906001905f90565b6040513d5f823e3d90fd5b5050505f916003919056fea26469706673582212209861bf9ee781a325abd29db72b30e767c7796f20bc1e21b6d9bca9128c5e896d64736f6c634300081e00330000000000000000000000003441cf331cb75c6bbca7a34718224c7983ef46360000000000000000000000004d149a54658d310c9487671d868a4ce0b6fded96",
        "nonce": "0x3c",
        "chainId": "0x4cef52"
      },
      "additionalContracts": [],
      "isFixedGasLimit": false
    },
    {
      "hash": "0x446945563d1a05b4fc6eceb4840178ca4ef2faf4d605e07c7537de5e18646c89",
      "transactionType": "CALL",
      "contractName": "GaslessRelayer",
      "contractAddress": "0xb578040b8cf5d16ef2c44aa3ee5e536c91e0391f",
      "function": "batchWhitelistPoolAmounts(uint256[],bool)",
      "arguments": [
        "[10000000000000000000, 100000000000000000000, 1000000000000000000000, 10000000000000000000000, 10000000, 100000000, 500000000, 1000000000, 5000000000, 10000000000]",
        "true"
      ],
      "transaction": {
        "from": "0x4d149a54658d310c9487671d868a4ce0b6fded96",
        "to": "0xb578040b8cf5d16ef2c44aa3ee5e536c91e0391f",
        "gas": "0x5df00",
        "value": "0x0",
        "input": "0x222a335f00000000000000000000000000000000000000000000000000000000000000400000000000000000000000000000000000000000000000000000000000000001000000000000000000000000000000000000000000000000000000000000000a0000000000000000000000000000000000000000000000008ac7230489e800000000000000000000000000000000000000000000000000056bc75e2d6310000000000000000000000000000000000000000000000000003635c9adc5dea0000000000000000000000000000000000000000000000000021e19e0c9bab240000000000000000000000000000000000000000000000000000000000000009896800000000000000000000000000000000000000000000000000000000005f5e100000000000000000000000000000000000000000000000000000000001dcd6500000000000000000000000000000000000000000000000000000000003b9aca00000000000000000000000000000000000000000000000000000000012a05f20000000000000000000000000000000000000000000000000000000002540be400",
        "nonce": "0x3d",
        "chainId": "0x4cef52"
      },
      "additionalContracts": [],
      "isFixedGasLimit": false
    }
  ],
  "receipts": [
    {
      "status": "0x1",
      "cumulativeGasUsed": "0x16d51b",
      "logs": [
        {
          "address": "0xb578040b8cf5d16ef2c44aa3ee5e536c91e0391f",
          "topics": [
            "0x8be0079c531659141344cd1fd0a4f28419497f9722a3daafe3b4186f6b6457e0",
            "0x0000000000000000000000000000000000000000000000000000000000000000",
            "0x0000000000000000000000004d149a54658d310c9487671d868a4ce0b6fded96"
          ],
          "data": "0x",
          "blockHash": "0xf18e80c51115caf843239d0647a1853a202cca4ab2b6ded50cb291958db496bb",
          "blockNumber": "0xf97616",
          "blockTimestamp": "0x693f1585",
          "transactionHash": "0x7df6bb3a14d417d9b1545a12b4d1c76fbee7f0f46fa88726ac59b156d4421aaf",
          "transactionIndex": "0x2",
          "logIndex": "0x4",
          "removed": false
        }
      ],
      "logsBloom": "0x00000000000000000000000000000000000000000000000000800000000000000000000000000000000000000000000000000000000000000000000000000001000000000000000000000000000000000001000000000000000000000000000040000000028000000000800000000800000000000000000000000000000000400000000000000000000000000000000000000000000000000000000000000000000000000000000000000080000000000000000000000000000000000000000000000000000000000000004000000000000000000000000000000000000020000000000000000000000000000000000000000000000000000000000000000000",
      "type": "0x0",
      "transactionHash": "0x7df6bb3a14d417d9b1545a12b4d1c76fbee7f0f46fa88726ac59b156d4421aaf",
      "transactionIndex": "0x2",
      "blockHash": "0xf18e80c51115caf843239d0647a1853a202cca4ab2b6ded50cb291958db496bb",
      "blockNumber": "0xf97616",
      "gasUsed": "0x1364f7",
      "effectiveGasPrice": "0x266ac43200",
      "from": "0x4d149a54658d310c9487671d868a4ce0b6fded96",
      "to": null,
      "contractAddress": "0xb578040b8cf5d16ef2c44aa3ee5e536c91e0391f"
    },
    {
      "status": "0x1",
      "cumulativeGasUsed": "0x77734",
      "logs": [
        {
          "address": "0xb578040b8cf5d16ef2c44aa3ee5e536c91e0391f",
          "topics": [
            "0xcdddaa96f84b1f8d4119db049923c12cce76bc36fb5fa4f86b4aa89b83f42b6e"
          ],
          "data": "0x0000000000000000000000000000000000000000000000008ac7230489e800000000000000000000000000000000000000000000000000000000000000000001",
          "blockHash": "0x2b0021317eb6dab7edddca094bee02c0a6afc1c8eec95eb844ab6e80d64471e7",
          "blockNumber": "0xf97617",
          "blockTimestamp": "0x693f1586",
          "transactionHash": "0x446945563d1a05b4fc6eceb4840178ca4ef2faf4d605e07c7537de5e18646c89",
          "transactionIndex": "0x1",
          "logIndex": "0x4",
          "removed": false
        },
        {
          "address": "0xb578040b8cf5d16ef2c44aa3ee5e536c91e0391f",
          "topics": [
            "0xcdddaa96f84b1f8d4119db049923c12cce76bc36fb5fa4f86b4aa89b83f42b6e"
          ],
          "data": "0x0000000000000000000000000000000000000000000000056bc75e2d631000000000000000000000000000000000000000000000000000000000000000000001",
          "blockHash": "0x2b0021317eb6dab7edddca094bee02c0a6afc1c8eec95eb844ab6e80d64471e7",
          "blockNumber": "0xf97617",
          "blockTimestamp": "0x693f1586",
          "transactionHash": "0x446945563d1a05b4fc6eceb4840178ca4ef2faf4d605e07c7537de5e18646c89",
          "transactionIndex": "0x1",
          "logIndex": "0x5",
          "removed": false
        },
        {
          "address": "0xb578040b8cf5d16ef2c44aa3ee5e536c91e0391f",
          "topics": [
            "0xcdddaa96f84b1f8d4119db049923c12cce76bc36fb5fa4f86b4aa89b83f42b6e"
          ],
          "data": "0x00000000000000000000000000000000000000000000003635c9adc5dea000000000000000000000000000000000000000000000000000000000000000000001",
          "blockHash": "0x2b0021317eb6dab7edddca094bee02c0a6afc1c8eec95eb844ab6e80d64471e7",
          "blockNumber": "0xf97617",
          "blockTimestamp": "0x693f1586",
          "transactionHash": "0x446945563d1a05b4fc6eceb4840178ca4ef2faf4d605e07c7537de5e18646c89",
          "transactionIndex": "0x1",
          "logIndex": "0x6",
          "removed": false
        },
        {
          "address": "0xb578040b8cf5d16ef2c44aa3ee5e536c91e0391f",
          "topics": [
            "0xcdddaa96f84b1f8d4119db049923c12cce76bc36fb5fa4f86b4aa89b83f42b6e"
          ],
          "data": "0x00000000000000000000000000000000000000000000021e19e0c9bab24000000000000000000000000000000000000000000000000000000000000000000001",
          "blockHash": "0x2b0021317eb6dab7edddca094bee02c0a6afc1c8eec95eb844ab6e80d64471e7",
          "blockNumber": "0xf97617",
          "blockTimestamp": "0x693f1586",
          "transactionHash": "0x446945563d1a05b4fc6eceb4840178ca4ef2faf4d605e07c7537de5e18646c89",
          "transactionIndex": "0x1",
          "logIndex": "0x7",
          "removed": false
        },
        {
          "address": "0xb578040b8cf5d16ef2c44aa3ee5e536c91e0391f",
          "topics": [
            "0xcdddaa96f84b1f8d4119db049923c12cce76bc36fb5fa4f86b4aa89b83f42b6e"
          ],
          "data": "0x00000000000000000000000000000000000000000000000000000000009896800000000000000000000000000000000000000000000000000000000000000001",
          "blockHash": "0x2b0021317eb6dab7edddca094bee02c0a6afc1c8eec95eb844ab6e80d64471e7",
          "blockNumber": "0xf97617",
          "blockTimestamp": "0x693f1586",
          "transactionHash": "0x446945563d1a05b4fc6eceb4840178ca4ef2faf4d605e07c7537de5e18646c89",
          "transactionIndex": "0x1",
          "logIndex": "0x8",
          "removed": false
        },
        {
          "address": "0xb578040b8cf5d16ef2c44aa3ee5e536c91e0391f",
          "topics": [
            "0xcdddaa96f84b1f8d4119db049923c12cce76bc36fb5fa4f86b4aa89b83f42b6e"
          ],
          "data": "0x0000000000000000000000000000000000000000000000000000000005f5e1000000000000000000000000000000000000000000000000000000000000000001",
          "blockHash": "0x2b0021317eb6dab7edddca094bee02c0a6afc1c8eec95eb844ab6e80d64471e7",
          "blockNumber": "0xf97617",
          "blockTimestamp": "0x693f1586",
          "transactionHash": "0x446945563d1a05b4fc6eceb4840178ca4ef2faf4d605e07c7537de5e18646c89",
          "transactionIndex": "0x1",
          "logIndex": "0x9",
          "removed": false
        },
        {
          "address": "0xb578040b8cf5d16ef2c44aa3ee5e536c91e0391f",
          "topics": [
            "0xcdddaa96f84b1f8d4119db049923c12cce76bc36fb5fa4f86b4aa89b83f42b6e"
          ],
          "data": "0x000000000000000000000000000000000000000000000000000000001dcd65000000000000000000000000000000000000000000000000000000000000000001",
          "blockHash": "0x2b0021317eb6dab7edddca094bee02c0a6afc1c8eec95eb844ab6e80d64471e7",
          "blockNumber": "0xf97617",
          "blockTimestamp": "0x693f1586",
          "transactionHash": "0x446945563d1a05b4fc6eceb4840178ca4ef2faf4d605e07c7537de5e18646c89",
          "transactionIndex": "0x1",
          "logIndex": "0xa",
          "removed": false
        },
        {
          "address": "0xb578040b8cf5d16ef2c44aa3ee5e536c91e0391f",
          "topics": [
            "0xcdddaa96f84b1f8d4119db049923c12cce76bc36fb5fa4f86b4aa89b83f42b6e"
          ],
          "data": "0x000000000000000000000000000000000000000000000000000000003b9aca000000000000000000000000000000000000000000000000000000000000000001",
          "blockHash": "0x2b0021317eb6dab7edddca094bee02c0a6afc1c8eec95eb844ab6e80d64471e7",
          "blockNumber": "0xf97617",
          "blockTimestamp": "0x693f1586",
          "transactionHash": "0x446945563d1a05b4fc6eceb4840178ca4ef2faf4d605e07c7537de5e18646c89",
          "transactionIndex": "0x1",
          "logIndex": "0xb",
          "removed": false
        },
        {
          "address": "0xb578040b8cf5d16ef2c44aa3ee5e536c91e0391f",
          "topics": [
            "0xcdddaa96f84b1f8d4119db049923c12cce76bc36fb5fa4f86b4aa89b83f42b6e"
          ],
          "data": "0x000000000000000000000000000000000000000000000000000000012a05f2000000000000000000000000000000000000000000000000000000000000000001",
          "blockHash": "0x2b0021317eb6dab7edddca094bee02c0a6afc1c8eec95eb844ab6e80d64471e7",
          "blockNumber": "0xf97617",
          "blockTimestamp": "0x693f1586",
          "transactionHash": "0x446945563d1a05b4fc6eceb4840178ca4ef2faf4d605e07c7537de5e18646c89",
          "transactionIndex": "0x1",
          "logIndex": "0xc",
          "removed": false
        },
        {
          "address": "0xb578040b8cf5d16ef2c44aa3ee5e536c91e0391f",
          "topics": [
            "0xcdddaa96f84b1f8d4119db049923c12cce76bc36fb5fa4f86b4aa89b83f42b6e"
          ],
          "data": "0x00000000000000000000000000000000000000000000000000000002540be4000000000000000000000000000000000000000000000000000000000000000001",
          "blockHash": "0x2b0021317eb6dab7edddca094bee02c0a6afc1c8eec95eb844ab6e80d64471e7",
          "blockNumber": "0xf97617",
          "blockTimestamp": "0x693f1586",
          "transactionHash": "0x446945563d1a05b4fc6eceb4840178ca4ef2faf4d605e07c7537de5e18646c89",
          "transactionIndex": "0x1",
          "logIndex": "0xd",
          "removed": false
        }
      ],
      "logsBloom": "0x00000000000000000000000000000000000000000000000000000000000000000000000000000000000000000000000000000000000000000000000000000001000000000000000000000000000000000000000000000000000000000000000040000000000000000000000000000000000000000000000000000000000000000008000000000000000000000000000000000000000000000000001000000000000000000000000000000000000000000000000000000000000000000000000000000000000000000000004000000000000000000000000000000000000000000000400000000000000000000000000000000000000000000000000000000000",
      "type": "0x0",
      "transactionHash": "0x446945563d1a05b4fc6eceb4840178ca4ef2faf4d605e07c7537de5e18646c89",
      "transactionIndex": "0x1",
      "blockHash": "0x2b0021317eb6dab7edddca094bee02c0a6afc1c8eec95eb844ab6e80d64471e7",
      "blockNumber": "0xf97617",
      "gasUsed": "0x403b2",
      "effectiveGasPrice": "0x266ac43200",
      "from": "0x4d149a54658d310c9487671d868a4ce0b6fded96",
      "to": "0xb578040b8cf5d16ef2c44aa3ee5e536c91e0391f",
      "contractAddress": null
    }
  ],
  "libraries": [],
  "pending": [],
  "returns": {},
  "timestamp": 1765741959732,
  "chain": 5042002,
  "commit": "6770162"
}